{
  "contractName": "Auth",
  "abi": [
    {
      "anonymous": false,
      "inputs": [
        {
          "indexed": false,
          "internalType": "address",
          "name": "officerAddress",
          "type": "address"
        }
      ],
      "name": "OfficerLoggedIn",
      "type": "event"
    },
    {
      "anonymous": false,
      "inputs": [
        {
          "indexed": false,
          "internalType": "address",
          "name": "officerAddress",
          "type": "address"
        },
        {
          "indexed": false,
          "internalType": "string",
          "name": "username",
          "type": "string"
        },
        {
          "indexed": false,
          "internalType": "string",
          "name": "badgeNumber",
          "type": "string"
        }
      ],
      "name": "OfficerRegistered",
      "type": "event"
    },
    {
      "inputs": [
        {
          "internalType": "string",
          "name": "_username",
          "type": "string"
        },
        {
          "internalType": "string",
          "name": "_email",
          "type": "string"
        },
        {
          "internalType": "string",
          "name": "_badgeNumber",
          "type": "string"
        },
        {
          "internalType": "string",
          "name": "_policeStation",
          "type": "string"
        },
        {
          "internalType": "string",
          "name": "_rank",
          "type": "string"
        },
        {
          "internalType": "string",
          "name": "_password",
          "type": "string"
        }
      ],
      "name": "registerOfficer",
      "outputs": [],
      "stateMutability": "nonpayable",
      "type": "function"
    },
    {
      "inputs": [
        {
          "internalType": "string",
          "name": "_password",
          "type": "string"
        }
      ],
      "name": "loginOfficer",
      "outputs": [
        {
          "internalType": "bool",
          "name": "",
          "type": "bool"
        }
      ],
      "stateMutability": "view",
      "type": "function",
      "constant": true
    },
    {
      "inputs": [
        {
          "internalType": "string",
          "name": "_username",
          "type": "string"
        }
      ],
      "name": "verifyOfficerUsername",
      "outputs": [
        {
          "internalType": "bool",
          "name": "",
          "type": "bool"
        }
      ],
      "stateMutability": "view",
      "type": "function",
      "constant": true
    },
    {
      "inputs": [],
      "name": "isOfficerRegistered",
      "outputs": [
        {
          "internalType": "bool",
          "name": "",
          "type": "bool"
        }
      ],
      "stateMutability": "view",
      "type": "function",
      "constant": true
    },
    {
      "inputs": [],
      "name": "getOfficerDetails",
      "outputs": [
        {
          "internalType": "string",
          "name": "",
          "type": "string"
        },
        {
          "internalType": "string",
          "name": "",
          "type": "string"
        },
        {
          "internalType": "string",
          "name": "",
          "type": "string"
        }
      ],
      "stateMutability": "view",
      "type": "function",
      "constant": true
    }
  ],
  "bytecode": "0x608060405234801561001057600080fd5b50610f76806100206000396000f3fe608060405234801561001057600080fd5b50600436106100575760003560e01c80635214409e1461005c5780635e7ff0071461007c5780636c147788146100ac578063c1e118d4146100dc578063ec71ce56146100f8575b600080fd5b610064610116565b60405161007393929190610cf6565b60405180910390f35b61009660048036038101906100919190610987565b61041b565b6040516100a39190610cdb565b60405180910390f35b6100c660048036038101906100c19190610987565b610541565b6040516100d39190610cdb565b60405180910390f35b6100f660048036038101906100f191906109c8565b610642565b005b610100610826565b60405161010d9190610cdb565b60405180910390f35b60608060606000803373ffffffffffffffffffffffffffffffffffffffff1673ffffffffffffffffffffffffffffffffffffffff16815260200190815260200160002060040160009054906101000a900460ff166101a9576040517f08c379a00000000000000000000000000000000000000000000000000000000081526004016101a090610d42565b60405180910390fd5b6000803373ffffffffffffffffffffffffffffffffffffffff1673ffffffffffffffffffffffffffffffffffffffff1681526020019081526020016000206000016000803373ffffffffffffffffffffffffffffffffffffffff1673ffffffffffffffffffffffffffffffffffffffff1681526020019081526020016000206001016000803373ffffffffffffffffffffffffffffffffffffffff1673ffffffffffffffffffffffffffffffffffffffff16815260200190815260200160002060020182805461027890610e9f565b80601f01602080910402602001604051908101604052809291908181526020018280546102a490610e9f565b80156102f15780601f106102c6576101008083540402835291602001916102f1565b820191906000526020600020905b8154815290600101906020018083116102d457829003601f168201915b5050505050925081805461030490610e9f565b80601f016020809104026020016040519081016040528092919081815260200182805461033090610e9f565b801561037d5780601f106103525761010080835404028352916020019161037d565b820191906000526020600020905b81548152906001019060200180831161036057829003601f168201915b5050505050915080805461039090610e9f565b80601f01602080910402602001604051908101604052809291908181526020018280546103bc90610e9f565b80156104095780601f106103de57610100808354040283529160200191610409565b820191906000526020600020905b8154815290600101906020018083116103ec57829003601f168201915b50505050509050925092509250909192565b60008060003373ffffffffffffffffffffffffffffffffffffffff1673ffffffffffffffffffffffffffffffffffffffff16815260200190815260200160002060040160009054906101000a900460ff166104ab576040517f08c379a00000000000000000000000000000000000000000000000000000000081526004016104a290610d42565b60405180910390fd5b816040516020016104bc9190610c68565b604051602081830303815290604052805190602001206000803373ffffffffffffffffffffffffffffffffffffffff1673ffffffffffffffffffffffffffffffffffffffff1681526020019081526020016000206000016040516020016105239190610c7f565b60405160208183030381529060405280519060200120149050919050565b60008060003373ffffffffffffffffffffffffffffffffffffffff1673ffffffffffffffffffffffffffffffffffffffff16815260200190815260200160002060040160009054906101000a900460ff166105d1576040517f08c379a00000000000000000000000000000000000000000000000000000000081526004016105c890610d42565b60405180910390fd5b816040516020016105e29190610c68565b604051602081830303815290604052805190602001206000803373ffffffffffffffffffffffffffffffffffffffff1673ffffffffffffffffffffffffffffffffffffffff16815260200190815260200160002060030154149050919050565b6000803373ffffffffffffffffffffffffffffffffffffffff1673ffffffffffffffffffffffffffffffffffffffff16815260200190815260200160002060040160009054906101000a900460ff16156106d1576040517f08c379a00000000000000000000000000000000000000000000000000000000081526004016106c890610d62565b60405180910390fd5b6040518060a00160405280878152602001858152602001848152602001826040516020016106ff9190610c68565b604051602081830303815290604052805190602001208152602001600115158152506000803373ffffffffffffffffffffffffffffffffffffffff1673ffffffffffffffffffffffffffffffffffffffff168152602001908152602001600020600082015181600001908051906020019061077b92919061087c565b50602082015181600101908051906020019061079892919061087c565b5060408201518160020190805190602001906107b592919061087c565b506060820151816003015560808201518160040160006101000a81548160ff0219169083151502179055509050507f753062c03d21ca1efd0a5025d5c15f2150e4dbe33fc24f1ec7caefe19185877733878660405161081693929190610c96565b60405180910390a1505050505050565b60008060003373ffffffffffffffffffffffffffffffffffffffff1673ffffffffffffffffffffffffffffffffffffffff16815260200190815260200160002060040160009054906101000a900460ff16905090565b82805461088890610e9f565b90600052602060002090601f0160209004810192826108aa57600085556108f1565b82601f106108c357805160ff19168380011785556108f1565b828001600101855582156108f1579182015b828111156108f05782518255916020019190600101906108d5565b5b5090506108fe9190610902565b5090565b5b8082111561091b576000816000905550600101610903565b5090565b600061093261092d84610db3565b610d82565b90508281526020810184848401111561094a57600080fd5b610955848285610e5d565b509392505050565b600082601f83011261096e57600080fd5b813561097e84826020860161091f565b91505092915050565b60006020828403121561099957600080fd5b600082013567ffffffffffffffff8111156109b357600080fd5b6109bf8482850161095d565b91505092915050565b60008060008060008060c087890312156109e157600080fd5b600087013567ffffffffffffffff8111156109fb57600080fd5b610a0789828a0161095d565b965050602087013567ffffffffffffffff811115610a2457600080fd5b610a3089828a0161095d565b955050604087013567ffffffffffffffff811115610a4d57600080fd5b610a5989828a0161095d565b945050606087013567ffffffffffffffff811115610a7657600080fd5b610a8289828a0161095d565b935050608087013567ffffffffffffffff811115610a9f57600080fd5b610aab89828a0161095d565b92505060a087013567ffffffffffffffff811115610ac857600080fd5b610ad489828a0161095d565b9150509295509295509295565b610aea81610e1f565b82525050565b610af981610e31565b82525050565b6000610b0a82610df8565b610b148185610e03565b9350610b24818560208601610e6c565b610b2d81610f2f565b840191505092915050565b6000610b4382610df8565b610b4d8185610e14565b9350610b5d818560208601610e6c565b80840191505092915050565b60008154610b7681610e9f565b610b808186610e14565b94506001821660008114610b9b5760018114610bac57610bdf565b60ff19831686528186019350610bdf565b610bb585610de3565b60005b83811015610bd757815481890152600182019150602081019050610bb8565b838801955050505b50505092915050565b6000610bf5601683610e03565b91507f4f666669636572206e6f742072656769737465726564000000000000000000006000830152602082019050919050565b6000610c35601a83610e03565b91507f4f66666963657220616c726561647920726567697374657265640000000000006000830152602082019050919050565b6000610c748284610b38565b915081905092915050565b6000610c8b8284610b69565b915081905092915050565b6000606082019050610cab6000830186610ae1565b8181036020830152610cbd8185610aff565b90508181036040830152610cd18184610aff565b9050949350505050565b6000602082019050610cf06000830184610af0565b92915050565b60006060820190508181036000830152610d108186610aff565b90508181036020830152610d248185610aff565b90508181036040830152610d388184610aff565b9050949350505050565b60006020820190508181036000830152610d5b81610be8565b9050919050565b60006020820190508181036000830152610d7b81610c28565b9050919050565b6000604051905081810181811067ffffffffffffffff82111715610da957610da8610f00565b5b8060405250919050565b600067ffffffffffffffff821115610dce57610dcd610f00565b5b601f19601f8301169050602081019050919050565b60008190508160005260206000209050919050565b600081519050919050565b600082825260208201905092915050565b600081905092915050565b6000610e2a82610e3d565b9050919050565b60008115159050919050565b600073ffffffffffffffffffffffffffffffffffffffff82169050919050565b82818337600083830152505050565b60005b83811015610e8a578082015181840152602081019050610e6f565b83811115610e99576000848401525b50505050565b60006002820490506001821680610eb757607f821691505b60208210811415610ecb57610eca610ed1565b5b50919050565b7f4e487b7100000000000000000000000000000000000000000000000000000000600052602260045260246000fd5b7f4e487b7100000000000000000000000000000000000000000000000000000000600052604160045260246000fd5b6000601f19601f830116905091905056fea2646970667358221220e0c0cf630d1549ecb6919dbcd463d7849c8bc1352d147eb55ec76a5cc15d4ed464736f6c63430008000033",
  "immutableReferences": {},
  "source": "// contracts/Auth.sol\r\n// SPDX-License-Identifier: MIT\r\npragma solidity ^0.8.0;\r\n\r\ncontract Auth {\r\n    struct Officer {\r\n        string username;\r\n        string badgeNumber;\r\n        string policeStation;\r\n        bytes32 passwordHash; // Storing password securely as a hash\r\n        bool isRegistered;\r\n    }\r\n\r\n    mapping(address => Officer) private officers;\r\n\r\n    event OfficerRegistered(address officerAddress, string username, string badgeNumber);\r\n    event OfficerLoggedIn(address officerAddress);\r\n\r\n    function registerOfficer(\r\n        string memory _username, \r\n        string memory _email,  // kept for backward compatibility but not used\r\n        string memory _badgeNumber,\r\n        string memory _policeStation,\r\n        string memory _rank,   // kept for backward compatibility but not used\r\n        string memory _password\r\n    ) public {\r\n        require(!officers[msg.sender].isRegistered, \"Officer already registered\");\r\n\r\n        officers[msg.sender] = Officer({\r\n            username: _username,\r\n            badgeNumber: _badgeNumber,\r\n            policeStation: _policeStation,\r\n            passwordHash: keccak256(abi.encodePacked(_password)),\r\n            isRegistered: true\r\n        });\r\n\r\n        emit OfficerRegistered(msg.sender, _username, _badgeNumber);\r\n    }\r\n\r\n    function loginOfficer(string memory _password) public view returns (bool) {\r\n        require(officers[msg.sender].isRegistered, \"Officer not registered\");\r\n        return officers[msg.sender].passwordHash == keccak256(abi.encodePacked(_password));\r\n    }\r\n\r\n    function verifyOfficerUsername(string memory _username) public view returns (bool) {\r\n        require(officers[msg.sender].isRegistered, \"Officer not registered\");\r\n        return keccak256(abi.encodePacked(officers[msg.sender].username)) == keccak256(abi.encodePacked(_username));\r\n    }\r\n\r\n    function isOfficerRegistered() public view returns (bool) {\r\n        return officers[msg.sender].isRegistered;\r\n    }\r\n    \r\n    function getOfficerDetails() public view returns (string memory, string memory, string memory) {\r\n        require(officers[msg.sender].isRegistered, \"Officer not registered\");\r\n        return (\r\n            officers[msg.sender].username,\r\n            officers[msg.sender].badgeNumber,\r\n            officers[msg.sender].policeStation\r\n        );\r\n    }\r\n}\r\n",
  "sourcePath": "C:\\Users\\Admin\\Desktop\\f\\fir_project\\FIR-Blockchain\\contracts\\Auth.sol",
  "compiler": {
    "name": "solc",
    "version": "0.8.0+commit.c7dfd78e.Emscripten.clang"
  },
  "schemaVersion": "3.4.16",
  "updatedAt": "2025-03-31T08:58:45.927Z",
  "networkType": "ethereum",
  "devdoc": {
    "kind": "dev",
    "methods": {},
    "version": 1
  },
  "userdoc": {
    "kind": "user",
    "methods": {},
    "version": 1
  }
}