{
  "contractName": "Auth",
  "abi": [
    {
      "anonymous": false,
      "inputs": [
        {
          "indexed": false,
          "internalType": "address",
          "name": "officerAddress",
          "type": "address"
        }
      ],
      "name": "OfficerLoggedIn",
      "type": "event"
    },
    {
      "anonymous": false,
      "inputs": [
        {
          "indexed": false,
          "internalType": "address",
          "name": "officerAddress",
          "type": "address"
        },
        {
          "indexed": false,
          "internalType": "string",
          "name": "username",
          "type": "string"
        }
      ],
      "name": "OfficerRegistered",
      "type": "event"
    },
    {
      "inputs": [
        {
          "internalType": "string",
          "name": "_username",
          "type": "string"
        },
        {
          "internalType": "string",
          "name": "_email",
          "type": "string"
        },
        {
          "internalType": "string",
          "name": "_password",
          "type": "string"
        }
      ],
      "name": "registerOfficer",
      "outputs": [],
      "stateMutability": "nonpayable",
      "type": "function"
    },
    {
      "inputs": [
        {
          "internalType": "string",
          "name": "_password",
          "type": "string"
        }
      ],
      "name": "loginOfficer",
      "outputs": [
        {
          "internalType": "bool",
          "name": "",
          "type": "bool"
        }
      ],
      "stateMutability": "view",
      "type": "function"
    },
    {
      "inputs": [],
      "name": "isOfficerRegistered",
      "outputs": [
        {
          "internalType": "bool",
          "name": "",
          "type": "bool"
        }
      ],
      "stateMutability": "view",
      "type": "function"
    }
  ],
  "bytecode": "0x608060405234801561001057600080fd5b5061092f806100206000396000f3fe608060405234801561001057600080fd5b50600436106100415760003560e01c80636c14778814610046578063ec71ce5614610076578063f1c6021614610094575b600080fd5b610060600480360381019061005b91906104ce565b6100b0565b60405161006d91906106f5565b60405180910390f35b61007e6101b1565b60405161008b91906106f5565b60405180910390f35b6100ae60048036038101906100a9919061050f565b610207565b005b60008060003373ffffffffffffffffffffffffffffffffffffffff1673ffffffffffffffffffffffffffffffffffffffff16815260200190815260200160002060030160009054906101000a900460ff16610140576040517f08c379a000000000000000000000000000000000000000000000000000000000815260040161013790610710565b60405180910390fd5b8160405160200161015191906106ae565b604051602081830303815290604052805190602001206000803373ffffffffffffffffffffffffffffffffffffffff1673ffffffffffffffffffffffffffffffffffffffff16815260200190815260200160002060020154149050919050565b60008060003373ffffffffffffffffffffffffffffffffffffffff1673ffffffffffffffffffffffffffffffffffffffff16815260200190815260200160002060030160009054906101000a900460ff16905090565b6000803373ffffffffffffffffffffffffffffffffffffffff1673ffffffffffffffffffffffffffffffffffffffff16815260200190815260200160002060030160009054906101000a900460ff1615610296576040517f08c379a000000000000000000000000000000000000000000000000000000000815260040161028d90610730565b60405180910390fd5b6040518060800160405280848152602001838152602001826040516020016102be91906106ae565b604051602081830303815290604052805190602001208152602001600115158152506000803373ffffffffffffffffffffffffffffffffffffffff1673ffffffffffffffffffffffffffffffffffffffff168152602001908152602001600020600082015181600001908051906020019061033a9291906103c3565b5060208201518160010190805190602001906103579291906103c3565b506040820151816002015560608201518160030160006101000a81548160ff0219169083151502179055509050507ffbe80b2c9dbb0b34f42125657270b711a0e445b8edfa89c78352628551d4811433846040516103b69291906106c5565b60405180910390a1505050565b8280546103cf90610858565b90600052602060002090601f0160209004810192826103f15760008555610438565b82601f1061040a57805160ff1916838001178555610438565b82800160010185558215610438579182015b8281111561043757825182559160200191906001019061041c565b5b5090506104459190610449565b5090565b5b8082111561046257600081600090555060010161044a565b5090565b600061047961047484610781565b610750565b90508281526020810184848401111561049157600080fd5b61049c848285610816565b509392505050565b600082601f8301126104b557600080fd5b81356104c5848260208601610466565b91505092915050565b6000602082840312156104e057600080fd5b600082013567ffffffffffffffff8111156104fa57600080fd5b610506848285016104a4565b91505092915050565b60008060006060848603121561052457600080fd5b600084013567ffffffffffffffff81111561053e57600080fd5b61054a868287016104a4565b935050602084013567ffffffffffffffff81111561056757600080fd5b610573868287016104a4565b925050604084013567ffffffffffffffff81111561059057600080fd5b61059c868287016104a4565b9150509250925092565b6105af816107d8565b82525050565b6105be816107ea565b82525050565b60006105cf826107b1565b6105d981856107bc565b93506105e9818560208601610825565b6105f2816108e8565b840191505092915050565b6000610608826107b1565b61061281856107cd565b9350610622818560208601610825565b80840191505092915050565b600061063b6016836107bc565b91507f4f666669636572206e6f742072656769737465726564000000000000000000006000830152602082019050919050565b600061067b601a836107bc565b91507f4f66666963657220616c726561647920726567697374657265640000000000006000830152602082019050919050565b60006106ba82846105fd565b915081905092915050565b60006040820190506106da60008301856105a6565b81810360208301526106ec81846105c4565b90509392505050565b600060208201905061070a60008301846105b5565b92915050565b600060208201905081810360008301526107298161062e565b9050919050565b600060208201905081810360008301526107498161066e565b9050919050565b6000604051905081810181811067ffffffffffffffff82111715610777576107766108b9565b5b8060405250919050565b600067ffffffffffffffff82111561079c5761079b6108b9565b5b601f19601f8301169050602081019050919050565b600081519050919050565b600082825260208201905092915050565b600081905092915050565b60006107e3826107f6565b9050919050565b60008115159050919050565b600073ffffffffffffffffffffffffffffffffffffffff82169050919050565b82818337600083830152505050565b60005b83811015610843578082015181840152602081019050610828565b83811115610852576000848401525b50505050565b6000600282049050600182168061087057607f821691505b602082108114156108845761088361088a565b5b50919050565b7f4e487b7100000000000000000000000000000000000000000000000000000000600052602260045260246000fd5b7f4e487b7100000000000000000000000000000000000000000000000000000000600052604160045260246000fd5b6000601f19601f830116905091905056fea2646970667358221220f46f6f6e7e75b7c14eee40b043ec6c32b2acac692b97a007c745dfcc046f7c7a64736f6c63430008000033",
  "immutableReferences": {},
  "source": "// contracts/Auth.sol\n// SPDX-License-Identifier: MIT\npragma solidity ^0.8.0;\n\ncontract Auth {\n    struct Officer {\n        string username;\n        string email;\n        bytes32 passwordHash; // Storing password securely as a hash\n        bool isRegistered;\n    }\n\n    mapping(address => Officer) private officers;\n\n    event OfficerRegistered(address officerAddress, string username);\n    event OfficerLoggedIn(address officerAddress);\n\n    function registerOfficer(string memory _username, string memory _email, string memory _password) public {\n        require(!officers[msg.sender].isRegistered, \"Officer already registered\");\n\n        officers[msg.sender] = Officer({\n            username: _username,\n            email: _email,\n            passwordHash: keccak256(abi.encodePacked(_password)),\n            isRegistered: true\n        });\n\n        emit OfficerRegistered(msg.sender, _username);\n    }\n\n    function loginOfficer(string memory _password) public view returns (bool) {\n        require(officers[msg.sender].isRegistered, \"Officer not registered\");\n        return officers[msg.sender].passwordHash == keccak256(abi.encodePacked(_password));\n    }\n\n    function isOfficerRegistered() public view returns (bool) {\n        return officers[msg.sender].isRegistered;\n    }\n}\n",
  "sourcePath": "C:\\Users\\Admin\\Desktop\\s\\FIR-Blockchain\\contracts\\Auth.sol",
  "compiler": {
    "name": "solc",
    "version": "0.8.0+commit.c7dfd78e.Emscripten.clang"
  },
  "schemaVersion": "3.4.16",
  "updatedAt": "2025-02-09T06:58:49.700Z",
  "devdoc": {
    "kind": "dev",
    "methods": {},
    "version": 1
  },
  "userdoc": {
    "kind": "user",
    "methods": {},
    "version": 1
  }
}