{
  "contractName": "FIR",
  "abi": [
    {
      "inputs": [
        {
          "internalType": "uint256",
          "name": "",
          "type": "uint256"
        }
      ],
      "name": "firs",
      "outputs": [
        {
          "internalType": "string",
          "name": "FIRID",
          "type": "string"
        },
        {
          "internalType": "string",
          "name": "policeStation",
          "type": "string"
        },
        {
          "internalType": "string",
          "name": "criminalDetails",
          "type": "string"
        },
        {
          "internalType": "string",
          "name": "incidentLocation",
          "type": "string"
        },
        {
          "internalType": "string",
          "name": "victimDetails",
          "type": "string"
        },
        {
          "internalType": "string",
          "name": "officerDetails",
          "type": "string"
        }
      ],
      "stateMutability": "view",
      "type": "function",
      "constant": true
    },
    {
      "inputs": [
        {
          "internalType": "string",
          "name": "_FIRID",
          "type": "string"
        },
        {
          "internalType": "string",
          "name": "_policeStation",
          "type": "string"
        },
        {
          "internalType": "string",
          "name": "_criminalDetails",
          "type": "string"
        },
        {
          "internalType": "string",
          "name": "_incidentLocation",
          "type": "string"
        },
        {
          "internalType": "string",
          "name": "_victimDetails",
          "type": "string"
        },
        {
          "internalType": "string",
          "name": "_officerDetails",
          "type": "string"
        }
      ],
      "name": "createFIR",
      "outputs": [],
      "stateMutability": "nonpayable",
      "type": "function"
    },
    {
      "inputs": [
        {
          "internalType": "uint256",
          "name": "index",
          "type": "uint256"
        }
      ],
      "name": "getFIR",
      "outputs": [
        {
          "components": [
            {
              "internalType": "string",
              "name": "FIRID",
              "type": "string"
            },
            {
              "internalType": "string",
              "name": "policeStation",
              "type": "string"
            },
            {
              "internalType": "string",
              "name": "criminalDetails",
              "type": "string"
            },
            {
              "internalType": "string",
              "name": "incidentLocation",
              "type": "string"
            },
            {
              "internalType": "string",
              "name": "victimDetails",
              "type": "string"
            },
            {
              "internalType": "string",
              "name": "officerDetails",
              "type": "string"
            }
          ],
          "internalType": "struct FIR.FIRDetails",
          "name": "",
          "type": "tuple"
        }
      ],
      "stateMutability": "view",
      "type": "function",
      "constant": true
    },
    {
      "inputs": [],
      "name": "getTotalFIRs",
      "outputs": [
        {
          "internalType": "uint256",
          "name": "",
          "type": "uint256"
        }
      ],
      "stateMutability": "view",
      "type": "function",
      "constant": true
    }
  ],
  "bytecode": "0x608060405234801561001057600080fd5b50610fab806100206000396000f3fe608060405234801561001057600080fd5b506004361061004c5760003560e01c806327977bf514610051578063a4de172d1461006f578063d1e76a84146100a4578063f1a5c418146100c0575b600080fd5b6100596100f0565b6040516100669190610dc8565b60405180910390f35b61008960048036038101906100849190610bc5565b6100fc565b60405161009b96959493929190610d1b565b60405180910390f35b6100be60048036038101906100b99190610aac565b610478565b005b6100da60048036038101906100d59190610bc5565b610588565b6040516100e79190610da6565b60405180910390f35b60008080549050905090565b6000818154811061010c57600080fd5b906000526020600020906006020160009150905080600001805461012f90610ebd565b80601f016020809104026020016040519081016040528092919081815260200182805461015b90610ebd565b80156101a85780601f1061017d576101008083540402835291602001916101a8565b820191906000526020600020905b81548152906001019060200180831161018b57829003601f168201915b5050505050908060010180546101bd90610ebd565b80601f01602080910402602001604051908101604052809291908181526020018280546101e990610ebd565b80156102365780601f1061020b57610100808354040283529160200191610236565b820191906000526020600020905b81548152906001019060200180831161021957829003601f168201915b50505050509080600201805461024b90610ebd565b80601f016020809104026020016040519081016040528092919081815260200182805461027790610ebd565b80156102c45780601f10610299576101008083540402835291602001916102c4565b820191906000526020600020905b8154815290600101906020018083116102a757829003601f168201915b5050505050908060030180546102d990610ebd565b80601f016020809104026020016040519081016040528092919081815260200182805461030590610ebd565b80156103525780601f1061032757610100808354040283529160200191610352565b820191906000526020600020905b81548152906001019060200180831161033557829003601f168201915b50505050509080600401805461036790610ebd565b80601f016020809104026020016040519081016040528092919081815260200182805461039390610ebd565b80156103e05780601f106103b5576101008083540402835291602001916103e0565b820191906000526020600020905b8154815290600101906020018083116103c357829003601f168201915b5050505050908060050180546103f590610ebd565b80601f016020809104026020016040519081016040528092919081815260200182805461042190610ebd565b801561046e5780601f106104435761010080835404028352916020019161046e565b820191906000526020600020905b81548152906001019060200180831161045157829003601f168201915b5050505050905086565b60006040518060c0016040528088815260200187815260200186815260200185815260200184815260200183815250908060018154018082558091505060019003906000526020600020906006020160009091909190915060008201518160000190805190602001906104ec929190610956565b506020820151816001019080519060200190610509929190610956565b506040820151816002019080519060200190610526929190610956565b506060820151816003019080519060200190610543929190610956565b506080820151816004019080519060200190610560929190610956565b5060a082015181600501908051906020019061057d929190610956565b505050505050505050565b6105906109dc565b600082815481106105ca577f4e487b7100000000000000000000000000000000000000000000000000000000600052603260045260246000fd5b90600052602060002090600602016040518060c00160405290816000820180546105f390610ebd565b80601f016020809104026020016040519081016040528092919081815260200182805461061f90610ebd565b801561066c5780601f106106415761010080835404028352916020019161066c565b820191906000526020600020905b81548152906001019060200180831161064f57829003601f168201915b5050505050815260200160018201805461068590610ebd565b80601f01602080910402602001604051908101604052809291908181526020018280546106b190610ebd565b80156106fe5780601f106106d3576101008083540402835291602001916106fe565b820191906000526020600020905b8154815290600101906020018083116106e157829003601f168201915b5050505050815260200160028201805461071790610ebd565b80601f016020809104026020016040519081016040528092919081815260200182805461074390610ebd565b80156107905780601f1061076557610100808354040283529160200191610790565b820191906000526020600020905b81548152906001019060200180831161077357829003601f168201915b505050505081526020016003820180546107a990610ebd565b80601f01602080910402602001604051908101604052809291908181526020018280546107d590610ebd565b80156108225780601f106107f757610100808354040283529160200191610822565b820191906000526020600020905b81548152906001019060200180831161080557829003601f168201915b5050505050815260200160048201805461083b90610ebd565b80601f016020809104026020016040519081016040528092919081815260200182805461086790610ebd565b80156108b45780601f10610889576101008083540402835291602001916108b4565b820191906000526020600020905b81548152906001019060200180831161089757829003601f168201915b505050505081526020016005820180546108cd90610ebd565b80601f01602080910402602001604051908101604052809291908181526020018280546108f990610ebd565b80156109465780601f1061091b57610100808354040283529160200191610946565b820191906000526020600020905b81548152906001019060200180831161092957829003601f168201915b5050505050815250509050919050565b82805461096290610ebd565b90600052602060002090601f01602090048101928261098457600085556109cb565b82601f1061099d57805160ff19168380011785556109cb565b828001600101855582156109cb579182015b828111156109ca5782518255916020019190600101906109af565b5b5090506109d89190610a12565b5090565b6040518060c001604052806060815260200160608152602001606081526020016060815260200160608152602001606081525090565b5b80821115610a2b576000816000905550600101610a13565b5090565b6000610a42610a3d84610e14565b610de3565b905082815260208101848484011115610a5a57600080fd5b610a65848285610e7b565b509392505050565b600082601f830112610a7e57600080fd5b8135610a8e848260208601610a2f565b91505092915050565b600081359050610aa681610f5e565b92915050565b60008060008060008060c08789031215610ac557600080fd5b600087013567ffffffffffffffff811115610adf57600080fd5b610aeb89828a01610a6d565b965050602087013567ffffffffffffffff811115610b0857600080fd5b610b1489828a01610a6d565b955050604087013567ffffffffffffffff811115610b3157600080fd5b610b3d89828a01610a6d565b945050606087013567ffffffffffffffff811115610b5a57600080fd5b610b6689828a01610a6d565b935050608087013567ffffffffffffffff811115610b8357600080fd5b610b8f89828a01610a6d565b92505060a087013567ffffffffffffffff811115610bac57600080fd5b610bb889828a01610a6d565b9150509295509295509295565b600060208284031215610bd757600080fd5b6000610be584828501610a97565b91505092915050565b6000610bf982610e44565b610c038185610e4f565b9350610c13818560208601610e8a565b610c1c81610f4d565b840191505092915050565b6000610c3282610e44565b610c3c8185610e60565b9350610c4c818560208601610e8a565b610c5581610f4d565b840191505092915050565b600060c0830160008301518482036000860152610c7d8282610bee565b91505060208301518482036020860152610c978282610bee565b91505060408301518482036040860152610cb18282610bee565b91505060608301518482036060860152610ccb8282610bee565b91505060808301518482036080860152610ce58282610bee565b91505060a083015184820360a0860152610cff8282610bee565b9150508091505092915050565b610d1581610e71565b82525050565b600060c0820190508181036000830152610d358189610c27565b90508181036020830152610d498188610c27565b90508181036040830152610d5d8187610c27565b90508181036060830152610d718186610c27565b90508181036080830152610d858185610c27565b905081810360a0830152610d998184610c27565b9050979650505050505050565b60006020820190508181036000830152610dc08184610c60565b905092915050565b6000602082019050610ddd6000830184610d0c565b92915050565b6000604051905081810181811067ffffffffffffffff82111715610e0a57610e09610f1e565b5b8060405250919050565b600067ffffffffffffffff821115610e2f57610e2e610f1e565b5b601f19601f8301169050602081019050919050565b600081519050919050565b600082825260208201905092915050565b600082825260208201905092915050565b6000819050919050565b82818337600083830152505050565b60005b83811015610ea8578082015181840152602081019050610e8d565b83811115610eb7576000848401525b50505050565b60006002820490506001821680610ed557607f821691505b60208210811415610ee957610ee8610eef565b5b50919050565b7f4e487b7100000000000000000000000000000000000000000000000000000000600052602260045260246000fd5b7f4e487b7100000000000000000000000000000000000000000000000000000000600052604160045260246000fd5b6000601f19601f8301169050919050565b610f6781610e71565b8114610f7257600080fd5b5056fea2646970667358221220119df5687497cbc551b164154fb7df951c6175a0bf65e68dd53beb2d5b5b927464736f6c63430008000033",
  "immutableReferences": {},
  "source": "// SPDX-License-Identifier: MIT\npragma solidity ^0.8.0;\n\ncontract FIR {\n    struct FIRDetails {\n        string FIRID;\n        string policeStation;\n        string criminalDetails;\n        string incidentLocation;\n        string victimDetails;\n        string officerDetails;\n    }\n\n    FIRDetails[] public firs;\n\n    function createFIR(\n        string memory _FIRID,\n        string memory _policeStation,\n        string memory _criminalDetails,\n        string memory _incidentLocation,\n        string memory _victimDetails,\n        string memory _officerDetails\n    ) public {\n        firs.push(FIRDetails(_FIRID, _policeStation, _criminalDetails, _incidentLocation, _victimDetails, _officerDetails));\n    }\n\n    function getFIR(uint index) public view returns (FIRDetails memory) {\n        return firs[index];\n    }\n\n    function getTotalFIRs() public view returns (uint) {\n        return firs.length;\n    }\n}\n",
  "sourcePath": "C:\\Users\\Admin\\Desktop\\s\\FIR-Blockchain\\contracts\\FIR.sol",
  "compiler": {
    "name": "solc",
    "version": "0.8.0+commit.c7dfd78e.Emscripten.clang"
  },
  "schemaVersion": "3.4.16",
  "updatedAt": "2025-02-07T10:20:10.760Z",
  "networkType": "ethereum",
  "devdoc": {
    "kind": "dev",
    "methods": {},
    "version": 1
  },
  "userdoc": {
    "kind": "user",
    "methods": {},
    "version": 1
  }
}