{
  "contractName": "FIR",
  "abi": [
    {
      "inputs": [
        {
          "internalType": "address",
          "name": "_authContract",
          "type": "address"
        }
      ],
      "stateMutability": "nonpayable",
      "type": "constructor"
    },
    {
      "inputs": [],
      "name": "authContract",
      "outputs": [
        {
          "internalType": "address",
          "name": "",
          "type": "address"
        }
      ],
      "stateMutability": "view",
      "type": "function"
    },
    {
      "inputs": [
        {
          "internalType": "uint256",
          "name": "",
          "type": "uint256"
        }
      ],
      "name": "firs",
      "outputs": [
        {
          "internalType": "string",
          "name": "FIRID",
          "type": "string"
        },
        {
          "internalType": "string",
          "name": "policeStation",
          "type": "string"
        },
        {
          "internalType": "string",
          "name": "stationName",
          "type": "string"
        },
        {
          "internalType": "string",
          "name": "criminalDetails",
          "type": "string"
        },
        {
          "internalType": "string",
          "name": "incidentLocation",
          "type": "string"
        },
        {
          "internalType": "string",
          "name": "victimDetails",
          "type": "string"
        },
        {
          "internalType": "string",
          "name": "officerDetails",
          "type": "string"
        }
      ],
      "stateMutability": "view",
      "type": "function"
    },
    {
      "inputs": [
        {
          "internalType": "string",
          "name": "_FIRID",
          "type": "string"
        },
        {
          "internalType": "string",
          "name": "_policeStation",
          "type": "string"
        },
        {
          "internalType": "string",
          "name": "_stationName",
          "type": "string"
        },
        {
          "internalType": "string",
          "name": "_criminalDetails",
          "type": "string"
        },
        {
          "internalType": "string",
          "name": "_incidentLocation",
          "type": "string"
        },
        {
          "internalType": "string",
          "name": "_victimDetails",
          "type": "string"
        },
        {
          "internalType": "string",
          "name": "_officerDetails",
          "type": "string"
        }
      ],
      "name": "createFIR",
      "outputs": [],
      "stateMutability": "nonpayable",
      "type": "function"
    },
    {
      "inputs": [
        {
          "internalType": "uint256",
          "name": "index",
          "type": "uint256"
        }
      ],
      "name": "getFIR",
      "outputs": [
        {
          "components": [
            {
              "internalType": "string",
              "name": "FIRID",
              "type": "string"
            },
            {
              "internalType": "string",
              "name": "policeStation",
              "type": "string"
            },
            {
              "internalType": "string",
              "name": "stationName",
              "type": "string"
            },
            {
              "internalType": "string",
              "name": "criminalDetails",
              "type": "string"
            },
            {
              "internalType": "string",
              "name": "incidentLocation",
              "type": "string"
            },
            {
              "internalType": "string",
              "name": "victimDetails",
              "type": "string"
            },
            {
              "internalType": "string",
              "name": "officerDetails",
              "type": "string"
            }
          ],
          "internalType": "struct FIR.FIRDetails",
          "name": "",
          "type": "tuple"
        }
      ],
      "stateMutability": "view",
      "type": "function"
    },
    {
      "inputs": [],
      "name": "getTotalFIRs",
      "outputs": [
        {
          "internalType": "uint256",
          "name": "",
          "type": "uint256"
        }
      ],
      "stateMutability": "view",
      "type": "function"
    }
  ],
  "bytecode": "0x60806040523480156200001157600080fd5b506040516200131d3803806200131d833981810160405281019062000037919062000096565b80600160006101000a81548173ffffffffffffffffffffffffffffffffffffffff021916908373ffffffffffffffffffffffffffffffffffffffff1602179055505062000110565b6000815190506200009081620000f6565b92915050565b600060208284031215620000a957600080fd5b6000620000b9848285016200007f565b91505092915050565b6000620000cf82620000d6565b9050919050565b600073ffffffffffffffffffffffffffffffffffffffff82169050919050565b6200010181620000c2565b81146200010d57600080fd5b50565b6111fd80620001206000396000f3fe608060405234801561001057600080fd5b50600436106100565760003560e01c806251271e1461005b57806327977bf514610077578063a4de172d14610095578063b62367c9146100cb578063f1a5c418146100e9575b600080fd5b61007560048036038101906100709190610c46565b610119565b005b61007f61024d565b60405161008c9190610fe8565b60405180910390f35b6100af60048036038101906100aa9190610d8c565b610259565b6040516100c29796959493929190610f26565b60405180910390f35b6100d3610663565b6040516100e09190610f0b565b60405180910390f35b61010360048036038101906100fe9190610d8c565b610689565b6040516101109190610fc6565b60405180910390f35b60006040518060e001604052808981526020018881526020018781526020018681526020018581526020018481526020018381525090806001815401808255809150506001900390600052602060002090600702016000909190919091506000820151816000019080519060200190610193929190610ae9565b5060208201518160010190805190602001906101b0929190610ae9565b5060408201518160020190805190602001906101cd929190610ae9565b5060608201518160030190805190602001906101ea929190610ae9565b506080820151816004019080519060200190610207929190610ae9565b5060a0820151816005019080519060200190610224929190610ae9565b5060c0820151816006019080519060200190610241929190610ae9565b50505050505050505050565b60008080549050905090565b6000818154811061026957600080fd5b906000526020600020906007020160009150905080600001805461028c9061110f565b80601f01602080910402602001604051908101604052809291908181526020018280546102b89061110f565b80156103055780601f106102da57610100808354040283529160200191610305565b820191906000526020600020905b8154815290600101906020018083116102e857829003601f168201915b50505050509080600101805461031a9061110f565b80601f01602080910402602001604051908101604052809291908181526020018280546103469061110f565b80156103935780601f1061036857610100808354040283529160200191610393565b820191906000526020600020905b81548152906001019060200180831161037657829003601f168201915b5050505050908060020180546103a89061110f565b80601f01602080910402602001604051908101604052809291908181526020018280546103d49061110f565b80156104215780601f106103f657610100808354040283529160200191610421565b820191906000526020600020905b81548152906001019060200180831161040457829003601f168201915b5050505050908060030180546104369061110f565b80601f01602080910402602001604051908101604052809291908181526020018280546104629061110f565b80156104af5780601f10610484576101008083540402835291602001916104af565b820191906000526020600020905b81548152906001019060200180831161049257829003601f168201915b5050505050908060040180546104c49061110f565b80601f01602080910402602001604051908101604052809291908181526020018280546104f09061110f565b801561053d5780601f106105125761010080835404028352916020019161053d565b820191906000526020600020905b81548152906001019060200180831161052057829003601f168201915b5050505050908060050180546105529061110f565b80601f016020809104026020016040519081016040528092919081815260200182805461057e9061110f565b80156105cb5780601f106105a0576101008083540402835291602001916105cb565b820191906000526020600020905b8154815290600101906020018083116105ae57829003601f168201915b5050505050908060060180546105e09061110f565b80601f016020809104026020016040519081016040528092919081815260200182805461060c9061110f565b80156106595780601f1061062e57610100808354040283529160200191610659565b820191906000526020600020905b81548152906001019060200180831161063c57829003601f168201915b5050505050905087565b600160009054906101000a900473ffffffffffffffffffffffffffffffffffffffff1681565b610691610b6f565b600082815481106106cb577f4e487b7100000000000000000000000000000000000000000000000000000000600052603260045260246000fd5b90600052602060002090600702016040518060e00160405290816000820180546106f49061110f565b80601f01602080910402602001604051908101604052809291908181526020018280546107209061110f565b801561076d5780601f106107425761010080835404028352916020019161076d565b820191906000526020600020905b81548152906001019060200180831161075057829003601f168201915b505050505081526020016001820180546107869061110f565b80601f01602080910402602001604051908101604052809291908181526020018280546107b29061110f565b80156107ff5780601f106107d4576101008083540402835291602001916107ff565b820191906000526020600020905b8154815290600101906020018083116107e257829003601f168201915b505050505081526020016002820180546108189061110f565b80601f01602080910402602001604051908101604052809291908181526020018280546108449061110f565b80156108915780601f1061086657610100808354040283529160200191610891565b820191906000526020600020905b81548152906001019060200180831161087457829003601f168201915b505050505081526020016003820180546108aa9061110f565b80601f01602080910402602001604051908101604052809291908181526020018280546108d69061110f565b80156109235780601f106108f857610100808354040283529160200191610923565b820191906000526020600020905b81548152906001019060200180831161090657829003601f168201915b5050505050815260200160048201805461093c9061110f565b80601f01602080910402602001604051908101604052809291908181526020018280546109689061110f565b80156109b55780601f1061098a576101008083540402835291602001916109b5565b820191906000526020600020905b81548152906001019060200180831161099857829003601f168201915b505050505081526020016005820180546109ce9061110f565b80601f01602080910402602001604051908101604052809291908181526020018280546109fa9061110f565b8015610a475780601f10610a1c57610100808354040283529160200191610a47565b820191906000526020600020905b815481529060010190602001808311610a2a57829003601f168201915b50505050508152602001600682018054610a609061110f565b80601f0160208091040260200160405190810160405280929190818152602001828054610a8c9061110f565b8015610ad95780601f10610aae57610100808354040283529160200191610ad9565b820191906000526020600020905b815481529060010190602001808311610abc57829003601f168201915b5050505050815250509050919050565b828054610af59061110f565b90600052602060002090601f016020900481019282610b175760008555610b5e565b82601f10610b3057805160ff1916838001178555610b5e565b82800160010185558215610b5e579182015b82811115610b5d578251825591602001919060010190610b42565b5b509050610b6b9190610bac565b5090565b6040518060e00160405280606081526020016060815260200160608152602001606081526020016060815260200160608152602001606081525090565b5b80821115610bc5576000816000905550600101610bad565b5090565b6000610bdc610bd784611034565b611003565b905082815260208101848484011115610bf457600080fd5b610bff8482856110cd565b509392505050565b600082601f830112610c1857600080fd5b8135610c28848260208601610bc9565b91505092915050565b600081359050610c40816111b0565b92915050565b600080600080600080600060e0888a031215610c6157600080fd5b600088013567ffffffffffffffff811115610c7b57600080fd5b610c878a828b01610c07565b975050602088013567ffffffffffffffff811115610ca457600080fd5b610cb08a828b01610c07565b965050604088013567ffffffffffffffff811115610ccd57600080fd5b610cd98a828b01610c07565b955050606088013567ffffffffffffffff811115610cf657600080fd5b610d028a828b01610c07565b945050608088013567ffffffffffffffff811115610d1f57600080fd5b610d2b8a828b01610c07565b93505060a088013567ffffffffffffffff811115610d4857600080fd5b610d548a828b01610c07565b92505060c088013567ffffffffffffffff811115610d7157600080fd5b610d7d8a828b01610c07565b91505092959891949750929550565b600060208284031215610d9e57600080fd5b6000610dac84828501610c31565b91505092915050565b610dbe81611091565b82525050565b6000610dcf82611064565b610dd9818561106f565b9350610de98185602086016110dc565b610df28161119f565b840191505092915050565b6000610e0882611064565b610e128185611080565b9350610e228185602086016110dc565b610e2b8161119f565b840191505092915050565b600060e0830160008301518482036000860152610e538282610dc4565b91505060208301518482036020860152610e6d8282610dc4565b91505060408301518482036040860152610e878282610dc4565b91505060608301518482036060860152610ea18282610dc4565b91505060808301518482036080860152610ebb8282610dc4565b91505060a083015184820360a0860152610ed58282610dc4565b91505060c083015184820360c0860152610eef8282610dc4565b9150508091505092915050565b610f05816110c3565b82525050565b6000602082019050610f206000830184610db5565b92915050565b600060e0820190508181036000830152610f40818a610dfd565b90508181036020830152610f548189610dfd565b90508181036040830152610f688188610dfd565b90508181036060830152610f7c8187610dfd565b90508181036080830152610f908186610dfd565b905081810360a0830152610fa48185610dfd565b905081810360c0830152610fb88184610dfd565b905098975050505050505050565b60006020820190508181036000830152610fe08184610e36565b905092915050565b6000602082019050610ffd6000830184610efc565b92915050565b6000604051905081810181811067ffffffffffffffff8211171561102a57611029611170565b5b8060405250919050565b600067ffffffffffffffff82111561104f5761104e611170565b5b601f19601f8301169050602081019050919050565b600081519050919050565b600082825260208201905092915050565b600082825260208201905092915050565b600061109c826110a3565b9050919050565b600073ffffffffffffffffffffffffffffffffffffffff82169050919050565b6000819050919050565b82818337600083830152505050565b60005b838110156110fa5780820151818401526020810190506110df565b83811115611109576000848401525b50505050565b6000600282049050600182168061112757607f821691505b6020821081141561113b5761113a611141565b5b50919050565b7f4e487b7100000000000000000000000000000000000000000000000000000000600052602260045260246000fd5b7f4e487b7100000000000000000000000000000000000000000000000000000000600052604160045260246000fd5b6000601f19601f8301169050919050565b6111b9816110c3565b81146111c457600080fd5b5056fea2646970667358221220f88bfdb14780fa814ce272e2eb34db15653f4c8971c65631da377f2e2f67953f64736f6c63430008000033",
  "immutableReferences": {},
  "source": "// SPDX-License-Identifier: MIT\npragma solidity ^0.8.0;\n\ncontract FIR {\n    struct FIRDetails {\n        string FIRID;\n        string policeStation;\n        string stationName;\n        string criminalDetails;\n        string incidentLocation;\n        string victimDetails;\n        string officerDetails;\n        \n    }\n\n    FIRDetails[] public firs;\n      address public authContract;\n\n    constructor(address _authContract) {\n        authContract = _authContract;\n    }\n\n    function createFIR(\n        string memory _FIRID,\n        string memory _policeStation,\n         string memory _stationName,\n        string memory _criminalDetails,\n        string memory _incidentLocation,\n        string memory _victimDetails,\n        string memory _officerDetails\n    ) public {\n        firs.push(FIRDetails(_FIRID, _policeStation, _stationName, _criminalDetails, _incidentLocation, _victimDetails, _officerDetails));\n    }\n\n    function getFIR(uint index) public view returns (FIRDetails memory) {\n        return firs[index];\n    }\n\n    function getTotalFIRs() public view returns (uint) {\n        return firs.length;\n    }\n}\n",
  "sourcePath": "C:\\Users\\Admin\\Desktop\\s\\FIR-Blockchain\\contracts\\FIR.sol",
  "compiler": {
    "name": "solc",
    "version": "0.8.0+commit.c7dfd78e.Emscripten.clang"
  },
  "schemaVersion": "3.4.16",
  "updatedAt": "2025-02-07T14:09:40.138Z",
  "devdoc": {
    "kind": "dev",
    "methods": {},
    "version": 1
  },
  "userdoc": {
    "kind": "user",
    "methods": {},
    "version": 1
  }
}